S0190000534C53544B33343030415F4144584C3336322E7333371F
S113000000200020F92500002526000025260000F8
S113001025260000252600002526000025260000B0
S113002025260000252600002526000025260000A0
S1130030252600002526000025260000B9370000EB
S11300402526000055340000252600002526000042
S113005025260000252600009D34000025260000EA
S1130060A53100005132000025260000252600009D
S11300704134000025260000252600002526000026
S113008025260000813000002D31000025260000C7
S11300902526000010B5064C2378002B07D1054B0C
S11300A0002B02D0044800E000BF0123237010BDE0
S11300B08800002000000000E0440000044B10B55C
S11300C0002B03D00349044800E000BF10BDC04624
S11300D0000000008C000020E0440000164B002BC0
S11300E000D1144B9D46402292029A1A9246002156
S11300F08B460F461348144A121A03F063FC0F4B45
S1130100002B00D098470E4B002B00D098470020BE
S1130110002104000D000D48002802D00C4800E026
S113012000BF03F02BFC2000290000F011FE03F0B7
S11301300FFCC04600000800002000200000000062
S113014000000000880000206C0100200000000076
S11301500000000080B582B000AF02003960FB1DD2
S11301601A70FB1D1B78002B21D0FB1D1B78012B63
S11301701AD0FB1D1B78022B14D0FB1D1B78032BFC
S11301800ED0FB1D1B78042B07D0FB1D1B78052B01
S113019001D13F230CE000230AE0F0239B0107E098
S11301A0F02305E0114B03E0D323DB0100E0104B07
S11301B03A6813410122134005D10E4A0E4B110037
S11301C0180000F031FE01223B689A4010000B49F0
S11301D0FB1D1A781300DB009B189B00CB1814330B
S11301E01860C046BD4602B080BDC0461FEF000087
S11301F007070000C2030000003A0000006000404E
S113020080B582B000AF02003960FB1D1A70FB1D7F
S11302101B78002B21D0FB1D1B78012B1AD0FB1D52
S11302201B78022B14D0FB1D1B78032B0ED0FB1D57
S11302301B78042B07D0FB1D1B78052B01D13F2312
S11302400CE000230AE0F0239B0107E0F02305E023
S1130250114B03E0D323DB0100E0104B3A68134158
S11302600122134005D10E4A0E4B1100180000F074
S1130270DBFD01223B689A4010000B49FB1D1A78F4
S11302801300DB009B189B00CB1810331860C0468A
S1130290BD4602B080BDC0461FEF00000707000046
S11302A0F1030000003A00000060004080B500AF98
S11302B0012304220521032001F01CFE0521032053
S11302C0FFF79EFF034B180002F0A2FDC046BD4697
S11302D080BDC0466C3A000080B582B000AF020019
S11302E0FB1D1A70FB1D1B78002B08D00521032071
S11302F0FFF786FF084B180002F08AFD07E005218E
S11303000320FFF727FF054B180002F093FDC046BA
S1130310BD4602B080BDC0466C3A0000843A00007D
S113032080B582B000AF0200FB1D1A70FB1D1B7864
S1130330002B18D0002304220C21042001F0DAFD44
S1130340012304220421032001F0D4FD012304220B
S11303500A21042001F0CEFD012301220B210420F7
S113036001F0C8FD17E0002300220C21042001F055
S1130370C1FD012300220421032001F0BBFD012360
S113038000220A21042001F0B5FD012300220B21E3
S1130390042001F0AFFDC046BD4602B080BD0000A0
S11303A090B587B000AF304B0121180000F066FF14
S11303B02E4B0121180000F061FF002304220C21C0
S11303C0042001F097FD012304220421032001F0FD
S11303D091FD012304220A21042001F08BFD012355
S11303E001220B21042001F085FD3B00204A13CAA1
S11303F013C313CA13C33B0000221A703B0000222C
S11304005A603B001B4A9A603B0005221A733B006A
S113041001225A733B0001229A733B0000221A8284
S11304203B0000229A743B0000221A753B00002214
S11304305A753B00104A1900100001F0CDFF0E4B15
S11304400F225A650C4B0521180001F037FF0D21CE
S11304500420FFF7D5FE094B180002F0D9FCC04672
S1130460BD4607B090BDC0460082040000320400BF
S1130470C03A000000093D0000C00040A03A00005E
S113048080B582B000AFFB1D00221A7000F0A2FA02
S113049000F0A9FA03001A0001235340DBB2002B39
S11304A04CD0FB1D1A78FB1D01321A70FA239B00F5
S11304B0180003F08DF900F08DFA00F094FA0300AF
S11304C01A0001235340DBB2002B37D0FB1D1A78EE
S11304D0FB1D01321A70FA239B00180003F078F90F
S11304E000F078FA00F07FFA03001A000123534069
S11304F0DBB2002B22D0FB1D1A78FB1D01321A70CF
S11305000020FFF7E9FEFA239B00180003F060F9CE
S11305100120FFF7E1FEFA239B00180003F058F9CD
S113052000F058FA00F05FFA03001A000123534068
S1130530DBB2002B02D0002003F018F9FB1D1B785E
S1130540012B07D8FB1D1978084A094B180002F043
S113055099FC06E0FB1D1978044A064B180002F0CA
S1130560ADFCC046BD4602B080BDC046443C000060
S1130570503C0000683C0000B0B584B000AF0200FD
S1130580FB1D1A7004210320FFF7E4FD0F4B0B2120
S1130590180001F0FEFFFB1D1B780C4A1900100027
S11305A001F0F7FF0F257C19084B0021180001F01A
S11305B0F0FF0300237004210320FFF721FE7B19C1
S11305C01B781800BD4604B0B0BDC04600C0004052
S11305D080B582B000AF0200FB1D1A70BB1D0A1C5F
S11305E01A7004210320FFF7B5FD0D4B0A211800F2
S11305F001F0CFFFFB1D1B78094A1900100001F020
S1130600C8FFBB1D1B78064A1900100001F0C1FF8A
S113061004210320FFF7F4FDC046BD4602B080BDAF
S113062000C00040B0B584B000AF0200FB1D1A70DA
S11306300F257C192C20FFF79FFF030023707B19E3
S11306407A19127807218A431A70FB1D1B78002B34
S113065006D10F23FB181B7819002C20FFF7B8FFD5
S1130660FB1D1B78012B09D10F23FB181B780122DA
S11306701343DBB219002C20FFF7AAFFFB1D1B78E4
S1130680022B09D10F23FB181B7802221343DBB280
S113069019002C20FFF79CFFFB1D1B78032B09D1AD
S11306A00F23FB181B7803221343DBB219002C2001
S11306B0FFF78EFFFB1D1B78042B09D10F23FB18BA
S11306C01B7804221343DBB219002C20FFF780FFB0
S11306D0FB1D1B78052B0AD10F23FB181B78052261
S11306E01343DBB219002C20FFF772FF09E00F233C
S11306F0FB181B7803221343DBB219002C20FFF7ED
S113070067FFFB1D1B78002B04D11D4B180002F062
S11307107FFB30E0FB1D1B78012B04D1194B180023
S113072002F076FB27E0FB1D1B78022B04D1164B4D
S1130730180002F06DFB1EE0FB1D1B78032B04D197
S1130740124B180002F064FB15E0FB1D1B78042B10
S113075004D10F4B180002F05BFB0CE0FB1D1B786F
S1130760052B04D10B4B180002F052FB03E00A4B9B
S1130770180002F04DFBC046BD4604B0B0BDC046F3
S1130780943C0000A83C0000BC3C0000D03C0000AD
S1130790E43C0000F83C00000C3D0000B0B584B01F
S11307A000AF0200FB1D1A700F257C192C20FFF7E7
S11307B0E3FE030023707B197A1912783F210A4063
S11307C01A70FB1D1B78002B0AD10F23FB181B7812
S11307D019002C20FFF7FCFE224B00221A7023E0A4
S11307E0FB1D1B78012B0DD10F23FB181B78402216
S11307F01343DBB219002C20FFF7EAFE194B012248
S11308001A7011E0FB1D1B78022B0DD10F23FB186E
S11308101B78802252421343DBB219002C20FFF7CD
S1130820D7FE104B02221A700E4B1B78002B04D1FA
S11308300D4B180002F0ECFA10E00A4B1B78012B68
S113084004D10A4B180002F0E3FA07E0054B1B78C9
S1130850022B03D1064B180002F0DAFAC046BD465B
S113086004B0B0BDA4000020303D0000503D0000A5
S1130870703D000090B585B000AF0200FB1D1A70FA
S113088010212A20FFF7A4FE03212720FFF7A0FE52
S1130890294B1B78002B09D1FB1D1B789AB20E2320
S11308A0FB18FA2189004A431A801EE0224B1B7868
S11308B0012B09D1FB1D1B789AB20E23FB18FA21D8
S11308C049004A431A8010E01B4B1B78022B08D1C5
S11308D0FB1D1B789AB20E23FB18FA214A431A8097
S11308E003E00E23FB1800221A800D203B180E2172
S11308F07A1812881A707B181B881B12DAB20C241F
S11309003B1903210A401A703B181B781900202058
S1130910FFF75EFE3B191B7819002120FFF758FEF4
S1130920FB1D1978054A064B180002F0ABFAC046C5
S1130930BD4605B090BDC046A4000020903D000017
S1130940943D0000B0B584B000AF0200FB1D1A70E6
S1130950FB1D1B78002B1CD00E2005003C182D20FD
S1130960FFF70AFE0300237028003B183A18127898
S113097003218A431A703B181B7802221343DBB20B
S113098019002D20FFF724FE104B180002F040FA46
S113099018E00F2005003C182D20FFF7EDFD0300A3
S11309A0237028003B183A18127803218A431A70DE
S11309B03B181B7819002D20FFF70AFE044B180082
S11309C002F026FAC046BD4604B0B0BDAC3D0000FE
S11309D0C03D000080B500AF52211F20FFF7F8FD95
S11309E0C046BD4680BD80B500AF0020FFF7C4FD02
S11309F00300AD3B5A425341DBB21800BD4680BDF3
S1130A0080B582B000AF0200FB1D1A70FB1D1B787D
S1130A107F2B09D8FB1D1B781A001F231A40044B97
S1130A20012191400A001A60C046BD4602B080BD53
S1130A3000E100E080B582B000AF0200FB1D1A7037
S1130A40FB1D1B787F2B0AD8FB1D1B781A001F2364
S1130A501340054901229A40C0235B00CA50C04696
S1130A60BD4602B080BDC04600E100E090B583B051
S1130A7000AF02003960FB1D1A70FB1D1B787F2B31
S1130A8028D82F4AFB1D1B785BB29B08C0339B0000
S1130A909B58FA1D1278110003220A40D200FF214C
S1130AA091400A00D2431A4011003B689B01FF2287
S1130AB01A40FB1D1B78180003230340DB009A40F7
S1130AC01F48FB1D1B785BB29B080A43C0339B0085
S1130AD01A5031E01B4AFB1D1B7819000F230B40F1
S1130AE0083B9B0806339B00D31804331B68FA1D8C
S1130AF01278110003220A40D200FF2191400A001B
S1130B00D2431A4011003B689B01FF221A40FB1D8F
S1130B101B78180003230340DB009A400948FB1D9F
S1130B201B781C000F232340083B9B080A43063311
S1130B309B00C31804331A60C046BD4603B090BD81
S1130B4000E100E000ED00E080B582B000AF786025
S1130B507B68013B0C4A934201D9012310E00B4B03
S1130B607A68013A5A6001235B4203211800FFF7B7
S1130B707DFF064B00229A60044B07221A60002373
S1130B801800BD4602B080BDFFFFFF0010E000E08A
S1130B9080B500AF034BDB6C1B0EDBB21800BD4607
S1130BA080BDC046B081E00F90B585B002AF0400AF
S1130BB0396010001900FB1D221C1A70BB1D021C99
S1130BC01A707B1D0A1C1A70BB1D1C783A683968A0
S1130BD0FB1D18781823FB181B7801937B1D1B78C9
S1130BE00093230001F0DEF8C046BD4603B090BD7B
S1130BF090B583B000AF0C4B01221A64FC1DFFF7C3
S1130C00C7FF03002370FB1D1B78812B08D8074BFB
S1130C10074A1A60074B1A68064B07490A401A60CC
S1130C20C046BD4603B090BD00000C4018600C40A7
S1130C3005000004E4800C40FFFFFFFE80B582B095
S1130C4000AF7860044BD969034B7A680A43DA61D0
S1130C50C046BD4602B080BD0000084080B582B0E9
S1130C6002AF1C4B0121180000F008FB01230322F2
S1130C700921022001F03EF9012303220A21022066
S1130C8001F038F9012301220721032001F032F990
S1130C900120FFF7B5FE0620FFF7B2FE0123009303
S1130CA00123002209210220FFF77EFF0123009384
S1130CB0012300220A210220FFF776FF012300937B
S1130CC00023012207210320FFF76EFFC046BD4623
S1130CD080BDC0460082040080B582B000AF01220E
S1130CE00121002000F022FE154B0121180000F024
S1130CF0C5FA144B0221180000F0C4FC124B012168
S1130D00180000F0BBFAF0235B031900002002F086
S1130D10F9FA0220FFF792FF0C20FFF78BFE0C205C
S1130D20FFF76EFE3B1D094A1188198092789A706C
S1130D303B1D180002F028FBC046BD4602B080BD32
S1130D400023020002001C0080061200E03D0000A7
S1130D5080B500AFFFF74CFF2E4B180000F0F0FAFF
S1130D600200FA239900100002F066FD0300180047
S1130D70FFF7EAFE031E00D0FEE7FFF7ADFFFFF723
S1130D806DFF254800230122042101F0B5FDFFF782
S1130D908DFAFFF705FB02F0B9FCFFF771FB0120A8
S1130DA0FFF7FCFC0020FFF73DFC0320FFF762FD8A
S1130DB00120FFF7C7FD194B180001F06BFF01205C
S1130DC002F0BDFCFA239B00180002F001FD002094
S1130DD002F0B5FC124B1B78DBB2002B05D00B20C4
S1130DE0FFF7CAFB0E4B00221A700E4B180002F0DC
S1130DF00FF8002002F002FD0020FFF791FA002016
S1130E0000F0B4FE0120FFF78BFA012002F0F6FC9B
S1130E10D5E7C0467000020000C40040E43D000075
S1130E20C0000020E83D000080B582B000AF7860CB
S1130E303960FEE780B586B000AFF860B9607A60CB
S1130E40FB681B687B610122BB689A401300DB438B
S1130E501A007B691A407B6801211940BB689940DC
S1130E600B001A43FB681A60C046BD4606B080BD3D
S1130E7080B582B000AF786039607B681A683B68DF
S1130E80DA401300012213401800BD4602B080BDB1
S1130E9080B500AF034BDB6C1B0EDBB21800BD4604
S1130EA080BDC046B081E00F80B582B000AF254B55
S1130EB05A69E023DB0013408022920093421ED043
S1130EC080229200934206D8002B26D08022520022
S1130ED093421FD027E0C0229200934204D0E02224
S1130EE0D20093421CD01EE0FFF7D2FF0300122B66
S1130EF002D9154B7B6020E0144B7B601DE0FFF7AB
S1130F00C7FF0300122B02D9114B7B6015E0114B74
S1130F107B6012E0104B7B600FE0104B7B600CE0B9
S1130F200F4B7B6009E000237B60A6231A010D4B65
S1130F3011001800FFF778FFC0467B681800BD4613
S1130F4002B080BD00800C40804F120040420F0070
S1130F5040B56400C0CF6A00C0D8A700809FD50008
S1130F60406F40017C3E000090B583B000AFFC1C94
S1130F70114B180000F08EFA03002370FB1C1B7841
S1130F80072B06D0092B09D101F072FB03007B600B
S1130F900DE0FFF789FF03007B6008E000237B601E
S1130FA0064A074B11001800FFF73EFFC0467B6856
S1130FB01800BD4603B090BD06000E009A0A00005A
S1130FC07C3E000080B584B000AF786039600F4B80
S1130FD05B6807221340FB607B680D4A934202D88A
S1130FE00023FB6005E07B680A4A934201D8012391
S1130FF0FB60064B5B68072293431900034BFA68B6
S11310000A435A60C046BD4604B080BD00000C408F
S11310100024F4000048E80180B582B000AF0D4B15
S1131020DA6BFB1D511E8A411A700A4B0A4ADA63B5
S113103001F016FB030000211800FFF7C3FFFB1D9E
S11310401B78002B02D0034B0022DA63C046BD4656
S113105002B080BD00000C40711B000090B585B04B
S113106000AF786039600D4BDA6B0F243B19511EC9
S11310708A411A70094B0A4ADA633A687B6811009C
S11310801800FFF79FFF3B191B78002B02D0034B7E
S11310900022DA63C046BD4605B090BD00000C4096
S11310A0711B000080B584B000AF78600023BB6082
S11310B07B683F4A93420CD03E4A934209D03E4A51
S11310C0934206D03D4A3E4B11001800FFF7ACFE98
S11310D000E0C0467B68180000F0DCF90300FB6008
S11310E07B68334A93420BD0324A93420FD0324A40
S11310F0934213D1334B9B6A03221340FB6014E0E9
S1131100304B9B6A9B0803221340FB600DE02D4B80
S11311109B6A1B0903221340FB6006E02A4A284B02
S113112011001800FFF780FEC046FB68012B05D0B4
S113113014D3022B07D0032B0AD02AE001F022FBA0
S11311400300BB602FE001F02BFB0300BB602AE02F
S113115001F06AFA03005B08BB6024E00023BB6073
S11311607B68154A934203D07B68114A934219D194
S1131170144B9A6A7B6810498B4201D1102300E01A
S11311801423DA40131E0DD001F003FB0300BB60EF
S113119008E00023BB600D4A094B11001800FFF75B
S11311A043FE00E0C046BB681800BD4604B080BDE5
S11311B003001E000400200002001C00A30C000019
S11311C07C3E000000800C40D20C0000FD0C0000AE
S11311D080B582B000AF7860074B5B6D012213408D
S11311E006D1C046044B1B6D7A681340FAD100E067
S11311F0C046BD4602B080BD00800C4090B583B0AF
S113120000AFFC1C164B180000F044F903002370D7
S1131210FB1C1B78032B0DD002DC022B05D017E03E
S1131220092B10D00A2B0AD012E001F0B9FA0300FE
S11312307B6010E001F0A6FA03007B600BE0094B31
S11312401B687B6007E001F013FA03007B6002E097
S113125000237B60C0467B681800BD4603B090BD88
S1131260073324000000002080B500AFC046BD460F
S113127080BD80B500AFC046BD4680BD80B586B098
S113128000AF78600A00FB1C1A7000233B617B6886
S11312901B0A0F2213400A2B20D89A001E4BD31886
S11312A01B689F461D4B7B611FE01D4B7B611CE04F
S11312B01C4B7B6119E01C4B7B6101233B6114E0F7
S11312C01A4B7B6110233B610FE0194B7B61802338
S11312D05B003B6109E0174B7B6106E0164A174B44
S11312E011001800FFF7A0FD12E07B681B0B1F2202
S11312F01340FB603B69002B03D03B691800FFF7E8
S113130067FFFB1C1A78F9687B691800FFF792FDE8
S1131310BD4606B080BDC046E83E000040800C409B
S113132008800C4044800C4058800C4060800C4085
S113133064800C4078800C400B1100007C3E00005F
S113134080B584B000AF78607A68F8239B031340BB
S113135080225203934200D179E0802252039342C7
S113136013D88022920293423BD08022920293426D
S113137002D8002B23D074E08022D202934223D0DF
S1131380E022120393425DD06BE0E02252039342C9
S11313902CD0E0225203934208D890225203934265
S11313A02BD0C022520393423DD05AE0F022520384
S11313B0934231D09022920393424DD051E001F0F8
S11313C057F90300FB6055E001F052F90300FB609C
S11313D02B4B9B680F221340FA68DA401300FB6022
S11313E048E001F021F90300FB6043E0254B1800BD
S11313F0FFF758FE0300FB603CE0224B1800FFF7A8
S113140051FE0300FB601E4B9B6E0F221340FA68D3
S1131410DA401300FB602DE01B4B1800FFF742FE7F
S11314200300FB6026E0184B1800FFF73BFE0300A7
S1131430FB60134B1B6F03221340FA68DA4013005E
S1131440FB6017E0FFF790FD0300FB6012E0FFF77D
S11314502BFD0300FB600DE0FFF7D0FE0300FB60F3
S113146008E00023FB60094A094B11001800FFF74C
S1131470DBFCC046FB681800BD4604B080BDC04616
S113148000800C4002001C0003001E001812000023
S11314907C3E000080B584B000AF78600F23FB1859
S11314A001221A707B680F221340BB60BB68072BB4
S11314B000D9CAE0BB689A006D4BD3181B689F46DD
S11314C06C4BDB6A6C4A134080225201934216D063
S11314D080225201934204D880221201934213D0F5
S11314E01CE080229201934204D08022D2049342D1
S11314F00FD013E00F23FB1802221A7013E00F23FE
S1131500FB1803221A700EE00F23FB1804221A7032
S113151009E00F23FB180B221A7004E00F23FB18B9
S113152005221A70C0469BE0524B9B6A032213406B
S1131530022B08D0032B0BD0012B0ED10F23FB1849
S113154003221A7015E00F23FB1802221A7010E010
S11315500F23FB1806221A700BE0464B9A6A80236D
S11315605B02134004D00F23FB180C221A7000E016
S1131570C04675E03F4B9B6A0C221340082B08D0F1
S11315800C2B0BD0042B0ED10F23FB1803221A7043
S113159015E00F23FB1802221A7010E00F23FB182A
S11315A006221A700BE0334B9A6A80235B031340C4
S11315B004D00F23FB180C221A7000E0C0464FE041
S11315C02C4B9B6A30221340102B02D0202B05D0C9
S11315D009E00F23FB1803221A7009E00F23FB18FC
S11315E002221A7004E00F23FB1801221A70C0466D
S11315F036E00F23FB1807221A7031E01D4BDA6A1C
S1131600E023DB02134080229202934212D0802214
S1131610D202934204D080225202934205D00EE0BB
S11316200F23FB180A221A700EE00F23FB18022264
S11316301A7009E00F23FB1803221A7004E00F2329
S1131640FB1801221A70C0460AE00F23FB1800227F
S11316501A700A4A0A4B11001800FFF7E5FBC0464E
S11316600F23FB181B781800BD4604B080BDC0468C
S1131670143F000000800C40003C00040A160000E7
S11316807C3E000080B588B000AF78600A00FB1C87
S11316901A700323FB611B23FB1803221A70002317
S11316A03B617B680F221340FB60FB68072B00D96A
S11316B016E1FB689A008F4BD3181B689F46FB1CEE
S11316C01B780C2B2ED89A008B4BD3181B689F4683
S11316D00423FB611B23FB1800221A7029E0032357
S11316E0FB611B23FB1801221A7022E00223FB6119
S11316F01B23FB1802221A701BE00123FB611B232E
S1131700FB1803221A7014E00523FB611B23FB184A
S113171005221A700DE0794A794B11001800FFF781
S113172083FBE4E0774A764B11001800FFF77CFB5B
S1131730DDE01B23FB181B7801220121180000F0B7
S1131740F5F8FFF769FCFFF78FFD6F4BFA695A62F2
S113175000F06AFF0300BB60BB6800211800FFF7BC
S11317607DFCFFF786FDC2E0FB1C1B780C2B25D803
S11317709A00664BD3181B689F4600237B6124E0C4
S113178001220121002000F0D1F802237B611CE03A
S113179001220121012000F0C9F801237B6114E03A
S11317A05B4B012202211800FFF744FB03237B61FA
S11317B00BE000237B6101233B6106E0554A504B5B
S11317C011001800FFF730FB91E0FB68022B0CD1ED
S11317D04D4B9B6A504A1A407B691A4311003B697E
S11317E01A04494B0A439A6281E0474B9B6A4B4A6D
S11317F01A407B699B001A4311003B691A05424B4E
S11318000A439A6273E0FB1C1B78022B06D0032B5D
S11318100CD0012B12D100237B6116E0012201219F
S1131820002000F083F802237B610EE001220121F5
S1131830012000F07BF801237B6106E0384A304B3D
S113184011001800FFF7F0FA51E02F4B9B6A302289
S1131850934319007B691A012B4B0A439A6246E0B1
S1131860FB1C1B78032B13D00A2B21D0022B2FD166
S113187001220121002000F059F8234B40225A6232
S1131880C046214BDA6A80235B021340F9D026E07C
S113189001220121012000F049F81B4B60225A6209
S11318A0C046194BDA6A80239B021340F9D016E034
S11318B001220121052000F039F8134B80225A62DD
S11318C0C046114BDA6A8023DB021340F9D006E0EC
S11318D0144A0B4B11001800FFF7A6FA07E006E0C4
S11318E0114A074B11001800FFF79EFAC046BD4687
S11318F008B080BD343F0000543F0000C41600000F
S11319007C3E0000C916000000800C40883F0000A7
S113191040800C406D170000FCFFFEFFF3FFEFFF5B
S11319209E17000007180000DC18000090B587B06F
S113193000AF040008001100FB1D221C1A70BB1D1F
S1131940021C1A707B1D0A1C1A70FB1D1B78052BC8
S113195032D89A00294BD3181B689F4601233B6158
S11319600223FB6001237B612DE004233B610823F8
S1131970FB6003237B6126E010233B612023FB6093
S113198005237B611FE040233B618023FB60072329
S11319907B6118E080235B003B6180239B00FB603C
S11319A009237B610FE08023DB003B6180231B0163
S11319B0FB6016237B6106E0114A124B11001800EC
S11319C0FFF732FA17E0BB1D1B78002B10D00E4B2B
S11319D03A691A627B1D1B78002B0CD0C0467B69C8
S11319E00A4A19001000FFF743FA031EF7D002E079
S11319F0054BFA681A62BD4607B090BDBC3F0000B3
S1131A00B61C00007C3E000000800C402C800C4082
S1131A1080B582B000AFEFF310833B603B687B601E
S1131A2072B67B681800BD4602B080BD80B582B036
S1131A3000AF78607B68002B00D162B6C046BD461B
S1131A4002B080BD80B500AF00F0EEFDC046BD46DB
S1131A5080BD000080B500AF034A84230021D1502B
S1131A60C046BD4680BDC04600800C4080B500AF76
S1131A70034A84230349D150C046BD4680BDC046B5
S1131A8000800C400E58000080B584B000AF020006
S1131A90FB1D1A70FB1D1B78002B0BD1304BDA6A2F
S1131AA0304B1A601120FFF7F5FC03001A002E4B8F
S1131AB01A7050E02A4A8423D35801221340FB6051
S1131AC0FFF7D4FF0023BB60264B1B6801221340A1
S1131AD0BA681343BB60234B1B6810221340BA68D7
S1131AE01343BB601F4B1B6840221340BA68134367
S1131AF0BB601C4B1B6804221340BA681343BB60D1
S1131B00184B1A6880235B001340BA681343BB6008
S1131B10144B1B68DA0A8023DB001340BA681343B2
S1131B20BB600F4BBA681A620F4B1B78052B05D0AC
S1131B300D4B1B7819001120FFF7A4FD094B1B68FE
S1131B400122134002D1064B02221A62FB68002BC9
S1131B5001D0FFF77FFFC046BD4604B080BDC0463C
S1131B6000800C40A8000020AC00002080B584B0A8
S1131B7000AF0200FB1D1A70FB1D1B78002B02D066
S1131B800020FFF781FF0F4B1A690E4B04210A4313
S1131B901A61FFF73DFF0300FB6001F029FFFB68BA
S1131BA01800FFF743FFFB1D1B78002B03D0012017
S1131BB0FFF76AFF01E0FFF745FFC046BD4604B0EA
S1131BC080BDC04600ED00E080B586B000AFF8608F
S1131BD0B9607A60FB681B687B610122BB689A402C
S1131BE01300DB431A007B691A407B68012119400A
S1131BF0BB6899400B001A43FB681A60C046BD4697
S1131C0006B080BD80B584B000AFF860B9607A607A
S1131C10FB681B68BA68D2431A407B681A43FB68A6
S1131C201A60C046BD4604B080BD000080B582B0D5
S1131C3000AF786004498E235B007A68CA50C046BE
S1131C40BD4602B080BDC0460060004080B582B091
S1131C5000AF02003960FB1D1A70FB1D1B78002BBE
S1131C6021D0FB1D1B78012B1AD0FB1D1B78022BE6
S1131C7014D0FB1D1B78032B0ED0FB1D1B78042BEB
S1131C8007D0FB1D1B78052B01D13F230CE000235B
S1131C900AE0F0239B0107E0F02305E0114B03E089
S1131CA0D323DB0100E0104B3A68134101221340B7
S1131CB005D10E4A0E4B11001800FFF7B5F80122AA
S1131CC03B689A4010000B49FB1D1A781300DB0097
S1131CD09B189B00CB1814331860C046BD4602B055
S1131CE080BDC0461FEF000007070000C2030000CC
S1131CF0D43F00000060004080B582B000AF020015
S1131D003960FB1D1A70FB1D1B78002B21D0FB1DB5
S1131D101B78012B1AD0FB1D1B78022B14D0FB1D42
S1131D201B78032B0ED0FB1D1B78042B07D0FB1D47
S1131D301B78052B01D13F230CE000230AE0F0239C
S1131D409B0107E0F02305E0114B03E0D323DB0103
S1131D5000E0104B3A6813410122134005D10E4AAA
S1131D600E4B11001800FFF75FF801223B689A4000
S1131D7010000B49FB1D1A781300DB009B189B0015
S1131D80CB1810331860C046BD4602B080BDC046B3
S1131D901FEF000007070000F1030000D43F00001C
S1131DA00060004090B587B000AFB9607A60190058
S1131DB00F243B19021C1A700E23FB180A1C1A70FC
S1131DC000237B613B191B78002B26D00F23FB18C3
S1131DD01B78012B1ED00F23FB181B78022B17D066
S1131DE00F23FB181B78032B10D00F23FB181B7831
S1131DF0042B08D00F23FB181B78052B01D13F239C
S1131E000CE000230AE0F0239B0107E0F02305E047
S1131E10304B03E0D323DB0100E02F4BBA681341BE
S1131E200122134004D12D4BC6211800FEF7FCFFFC
S1131E307B68072B11D87B689B0007229A4011000E
S1131E400F23FB181A787B689B009A4013001A0032
S1131E50234B1800FFF7D6FE13E07B68083B7B6139
S1131E607B699B0007229A4011000F23FB181A7804
S1131E707B699B009A4013001A001A4B1800FFF765
S1131E80C1FE0E23FB181A787B6817481900FFF768
S1131E909BFE202308229446BC4463441A787B6842
S1131EA012481900FFF790FE01227B689A40130044
S1131EB01800FFF7BBFE242308229446BC44634465
S1131EC01A787B680A481900FFF77EFEC046BD46B3
S1131ED007B090BD1FEF000007070000404000005E
S1131EE00061004004610040086100400C61004052
S1131EF01061004090B585B000AFB96011007B60FF
S1131F000F243B19021C1A700E23FB180A1C1A70AA
S1131F103B191B78002B26D00F23FB181B78012BB1
S1131F201ED00F23FB181B78022B17D00F23FB188E
S1131F301B78032B10D00F23FB181B78042B08D01D
S1131F400F23FB181B78052B01D13F230CE0002342
S1131F500AE0F0239B0107E0F02305E04D4B03E08A
S1131F60D323DB0100E04C4BBA6813410122134038
S1131F7006D18A235A00494B11001800FEF754FF7A
S1131F800E23FB181B78002B13D07B68002B08D082
S1131F90BA680F23FB181B7811001800FFF7ACFE7A
S1131FA007E0BA680F23FB181B7811001800FFF72D
S1131FB04DFEBB68072B25D839490F243B191A78E5
S1131FC01300DB009B189B00CB1804331B68BA6812
S1131FD092000F2191400A00D24313400E22BA18F6
S1131FE01178BA68920091400A0011002C483A19FD
S1131FF0127819431300DB009B189B00C3180433A9
S113200019602AE026490F243B191A781300DB00D3
S11320109B189B00CB1808331B68BA6821498C466F
S1132020624492000F2191400A00D24313400E22D1
S1132030BA181178BA681B488446624492009140E9
S11320400A00110016483A19127819431300DB00EC
S11320509B189B00C318083319600E23FB181B78C8
S1132060002B13D17B68002B08D0BA680F23FB1810
S11320701B7811001800FFF73FFE07E0BA680F2332
S1132080FB181B7811001800FFF7E0FDC046BD46A1
S113209005B090BD1FEF000007070000404000009E
S11320A000600040F8FFFF3F80B582B000AF786069
S11320B00A00FB1C1A70FB1C1B7810221343DBB2B2
S11320C01A007B689A65C046BD4602B080BD000018
S11320D080B586B000AFF860B9607A601A00FB1C66
S11320E01A707B68002B07D12423FF331A00504B4E
S11320F011001800FEF798FEBB68002B05D14D4B6C
S11321001800FFF71DF90300BB60FB1C1B78202B94
S113211018D002DC002B05D047E0402B21D0602BE7
S113212034D042E0BB681B097A689A4207D94E232F
S1132130FF331A003E4B11001800FEF775FE102302
S11321407B613AE0BB68DB087A689A4206D9A92326
S11321505A00374B11001800FEF766FE08237B6116
S11321602BE0BB680621180001F066FB03001A008F
S11321707B68934207D95823FF331A002C4B110074
S11321801800FEF751FE06237B6116E0BB689B082E
S11321907A689A4206D9AE235A00254B11001800DA
S11321A0FEF742FE04237B6107E0B1235A00204B73
S11321B011001800FEF738FE36E0BB685A017B694F
S11321C079684B435B08D3183B617B697A68534356
S11321D01900386901F030FB03003B613B69203B87
S11321E03B613B69DB003B613B69134A934206D97F
S11321F0BC235A000E4B11001800FEF715FE3B6974
S11322000D4A13403B61FB681B68602293431A002C
S1132210FB681A60FB681A68FB1C1B781A43FB688E
S11322201A60FB683A695A61BD4606B080BDC04673
S1132230AC40000040810400F8FF1F0080B586B068
S113224000AFF860B9607A607B68002B05D1174A4B
S1132250174B11001800FEF7E7FDBB68002B05D1F2
S1132260144B1800FFF76CF80300BB60BB685A1EE0
S11322707B685B001900100001F0DEFA03007B614B
S11322807B691B027B617B690B4A134006D09B234D
S11322909A00074B11001800FEF7C6FDFB687A6927
S11322A05A61C046BD4606B080BDC0465702000014
S11322B0AC400000408104000700E0FF80B584B01A
S11322C000AF78600A00FB1C1A707B68104A9342C6
S11322D009D07B680F4A934205D00F4A0F4B110077
S11322E01800FEF7A1FDFB1C1B78DB43FB60FB68B9
S11322F005221340FB60FB685A007B68DA60FB1C14
S11323001A787B68DA60C046BD4604B080BDC0461A
S113231000C0004000C4004087020000AC40000040
S113232080B582B000AF786039607B68274A9342F9
S11323300AD07B68264A934206D0AE239A00254BE6
S113234011001800FEF770FD7B68180000F0BAF861
S11323503B689B7C002B06D07B681B688022D205DF
S11323601A437B681A603B68DB7C002B06D03B6811
S11323701A7D7B6811001800FFF796FE3B685B7BB3
S11323801A003B681B8A13433A68D2891A437B6854
S11323905A603B6859683B689A683B681B7B78685D
S11323A0FFF796FE3B685B7D002B06D07B681B68BD
S11323B0802252021A437B681A603B681B781A0019
S11323C07B68DA60C046BD4602B080BD00C00040F4
S11323D000C40040AC40000080B582B000AF78601B
S11323E039607B68334A934209D07B68324A93420E
S11323F005D0324A324B11001800FEF715FD7B68F8
S1132400180000F05FF87B681A683B681B8A01219A
S11324100B439BB219003B689B7B002B02D08023AB
S1132420DB0000E000230B431A437B681A607B68DF
S11324301A683B681B7D002B02D080239B0500E0BB
S113244000231A437B681A603B689B7C002B06D0F0
S11324503B68DA7C7B6811001800FFF725FE3B68B7
S11324601B7B1A0080235B011A437B685A603B681C
S113247059683B689A687B681800FFF7DFFE3B6881
S11324805B7B002B02D07B681022DA603B685B7DAB
S1132490002B06D07B681B68802252021A437B689B
S11324A01A603B681B781A007B68DA60C046BD4638
S11324B002B080BD00C0004000C40040150300000D
S11324C0AC40000080B582B000AF78607B68214AE0
S11324D0934209D07B68204A934205D01F4A204B7F
S11324E011001800FEF7A0FC7B681E4ADA607B68C6
S11324F000221A607B681C4A5A607B6800229A603A
S11325007B6800225A617B680022DA647B68174A80
S11325109A647B6800225A657B680E4A934203D012
S11325207B680D4A934202D17B6800221A657B685E
S113253000229A657B68074A934203D07B68064A67
S1132540934202D17B680022DA65C046BD4602B0E0
S113255080BDC04600C0004000C40040E703000046
S1132560AC400000AA0E000005100000F91F000096
S113257080B582B000AF7860C0467B681B6980225A
S11325801340FAD07B68DB69DBB21800BD4602B0A9
S113259080BD80B582B000AF78600A00FB1C1A7061
S11325A0C0467B681B6940221340FAD0FB1C1A7892
S11325B07B685A63C0467B681B6920221340FAD0AB
S11325C07B68DB69DBB21800BD4602B080BD80B514
S11325D082B000AF78600A00FB1C1A70C0467B68AA
S11325E01B6940221340FAD0FB1C1A787B685A639B
S11325F0C046BD4602B080BD064880470649074A2A
S1132600074B9B1A03DD043BC858D050FBDCFDF795
S113261065FD00006D270000EC4400000000002070
S113262088000020FEE7C04680B582B000AF00F00D
S11326301FF803007B60084B5B680F2213407A6825
S1132640DA4013007B60054B7A681A607B681800D7
S1132650BD4602B080BDC04600800C400C00002086
S113266080B500AF014B1800BD4680BD00366E0139
S113267080B582B000AF334BDB6A334A134080220B
S11326805201934215D080225201934204D88022F1
S11326901201934211D017E080229201934204D098
S11326A08022D20493420CD00EE0284B1B687B603E
S11326B039E080231B027B6035E0254B1B687B607F
S11326C031E0244B7B602EE01E4BDA68E023DB0014
S11326D0134080229200934218D0802292009342A9
S11326E006D8002B18D080225200934211D016E055
S11326F0C0229200934206D08022D20093420ED18F
S1132700154B7B600EE0154B7B600BE0144B7B603C
S113271008E0144B7B6005E0134B7B6002E0002370
S11327207B60C046C046074B1B689B0B07221340C7
S113273001331900786801F07FF803001800BD46E2
S113274002B080BD00800C40003C00040800002062
S11327500400002000366E01406F4001809FD500C8
S1132760C0D8A70040B56400804F120080B500AF08
S1132770024B034A9A60C046BD4680BD00ED00E0AE
S11327800000000080B500AF80231B021800BD4686
S113279080BD80B500AFFA239B001800BD4680BD04
S11327A080B500AF024B1B681800BD4680BDC04613
S11327B00800002080B582B000AF0200FB1D1A7033
S11327C0FB1D1B787F2B09D8FB1D1B781A001F23C8
S11327D01A40044B012191400A001A60C046BD46CC
S11327E002B080BD00E100E080B582B000AF02001D
S11327F03960FB1D1A70FB1D1B78002B21D0FB1DBB
S11328001B78012B1AD0FB1D1B78022B14D0FB1D47
S11328101B78032B0ED0FB1D1B78042B07D0FB1D4C
S11328201B78052B01D13F230CE000230AE0F023A1
S11328309B0107E0F02305E0114B03E0D323DB0108
S113284000E0104B3A6813410122134005D10E4AAF
S11328500E4B11001800FEF7E7FA01223B689A407C
S113286010000B49FB1D1A781300DB009B189B001A
S1132870CB1810331860C046BD4602B080BDC046B8
S11328801FEF000007070000F103000018410000DB
S11328900060004080B582B000AF786039607B682A
S11328A03A689A64C046BD4602B080BD80B582B025
S11328B000AF786039607B68DA6C3B681A437B68E8
S11328C0DA64C046BD4602B080BD80B582B000AFB8
S11328D078607B681B6C1800BD4602B080BD80B573
S11328E082B000AF786039607B683A685A64C04649
S11328F0BD4602B080BD000090B589B000AF7860DD
S11329000C0010001900FB1C221C1A70BB1C021CBA
S11329101A707B1C0A1C1A70B84B7A681A60082358
S1132920FB18B74A13CA13C313CA13C3B54B012107
S11329301800FEF7A3FCB14B1B68B34A934205D1C0
S1132940B24B01211800FEF799FC09E0AB4B1B6860
S1132950AF4A934204D1AF4B01211800FEF78EFC1D
S1132960BB1C1B78002B09D0012304220921002061
S1132970FFF7C0FA09210020FFF736FF9F4B1B68C1
S1132980A14A934245D1FB1C1B78062B00D982E057
S11329909A00A14BD3181B689F46002301220B21E8
S11329A00420FFF7A7FA012304220A210420FFF7D9
S11329B0A1FA70E0002301220A210220FFF79AFA0B
S11329C069E0002301220C210420FFF793FA01237C
S11329D004220D210420FFF78DFA5CE0002301227C
S11329E008210120FFF786FA012304220721012090
S11329F0FFF780FA4FE00023012201210220FFF7B4
S1132A0079FA0123042200210220FFF773FAC04659
S1132A1041E07A4B1B687E4A93423CD1FB1C1B78F5
S1132A20052B38D89A007D4BD3181B689F4600238A
S1132A30012201210220FFF75DFA01230422002173
S1132A400220FFF757FA26E0002301220621032083
S1132A50FFF750FA0123042207210320FFF74AFA63
S1132A6019E00023012200210020FFF743FA01238B
S1132A70042202210520FFF73DFA0CE00023012285
S1132A8002210220FFF736FA012304220121022049
S1132A90FFF730FAC046594B1B680822BA181100D8
S1132AA01800FFF73DFCFB1C1B78062B44D89A004A
S1132AB05B4BD3181B689F46504B1B685A6D4F4B9A
S1132AC01B6803210A435A653EE04C4B1B685A6D50
S1132AD04A4B1B680421FF310A435A6534E0474BD3
S1132AE01B685A6D454B1B684E490A435A652BE0D7
S1132AF0424B1B685A6D414B1B684B490A435A654C
S1132B0022E03E4B1B685A6D3C4B1B6847490A4305
S1132B105A6519E0394B1B685A6D384B1B68444998
S1132B200A435A6510E0354B1B685A6D334B1B68DA
S1132B3040490A435A6507E0304B1B685A6D2F4BD6
S1132B401B6803210A435A657B1C1B78002B3DD06C
S1132B502A4B1B6804211800FFF7A8FE274B1B68AB
S1132B6001211800FFF7A2FE244B1B68264A93425A
S1132B7006D11120FFF71EFE1220FFF71BFE0AE00C
S1132B801E4B1B68224A934205D10820FFF712FE10
S1132B900920FFF70FFE284B180000F07BF8274BA5
S1132BA0180000F035F9264B180000F043F9254BC6
S1132BB0180000F053F9244B180000F06BF80F4B89
S1132BC01B6801211800FFF78AFE13E01F4B180051
S1132BD000F060F8194B180000F01AF9184B1800AF
S1132BE000F028F9174B180000F038F9184B1800BA
S1132BF000F050F8C046BD4609B090BDC4000020A6
S1132C00944200000082040000C00040003204002E
S1132C1000C40040004204000443000020430000BC
S1132C203843000003020000030300000304000013
S1132C30030500000306000084410000B4410000C5
S1132C40D0410000EC410000104200003C42000072
S1132C506842000080B584B000AF78600023FB6058
S1132C600BE00B4B18687A68FB68D3181B781900C3
S1132C70FFF7ADFCFB680133FB607A68FB68D3188F
S1132C801B78002BEDD1C046BD4604B080BDC046C4
S1132C90C400002080B582B000AF78607B68180063
S1132CA0FFF7D8FF074B1B680D211800FFF78FFCB7
S1132CB0044B1B680A211800FFF789FCC046BD4677
S1132CC002B080BDC400002080B582B000AF78603F
S1132CD00A00FB1C1A70FB1C1B78062B5BD89A009D
S1132CE0334BD3181B689F46324B1800FFF7B2FFD3
S1132CF07B681800FFF7AEFF55E02F4B1800FFF775
S1132D00A9FF7B681800FFF7A5FF2A4B1800FFF7FF
S1132D10A1FF48E0294B1800FFF79CFF7B681800CF
S1132D20FFF798FF234B1800FFF794FF3BE0244B79
S1132D301800FFF78FFF7B681800FFF78BFF1D4B10
S1132D401800FFF787FF2EE01E4B1800FFF782FFE5
S1132D507B681800FFF77EFF164B1800FFF77AFF19
S1132D6021E0194B1800FFF775FF7B681800FFF787
S1132D7071FF104B1800FFF76DFF14E0134B1800A0
S1132D80FFF768FF7B681800FFF764FF094B180022
S1132D90FFF760FF07E0074B1800FFF75BFF7B6856
S1132DA01800FFF757FFC046BD4602B080BDC046BD
S1132DB054430000AC420000B4420000BC42000096
S1132DC0C4420000CC420000D4420000DC420000B7
S1132DD080B582B000AF78600A00FB1C1A70FB1C3F
S1132DE01A787B6811001800FFF76EFF074B1B6809
S1132DF00D211800FFF7EBFB044B1B680A21180098
S1132E00FFF7E5FBC046BD4602B080BDC40000200C
S1132E1080B582B000AF7860054B1800FFF71AFF49
S1132E207B681800FFF736FFC046BD4602B080BD80
S1132E30E442000080B582B000AF7860064B062102
S1132E401800FFF741FF7B6806211800FFF7C0FF59
S1132E50C046BD4602B080BDEC42000080B582B0E1
S1132E6000AF7860064B01211800FFF72DFF7B6847
S1132E7001211800FFF7ACFFC046BD4602B080BD7B
S1132E80F442000080B584B000AFF860B9607A60A5
S1132E90094B1800FFF7DEFEFB681800FFF7DAFEA7
S1132EA0BB68180000F04AF87B681800FFF7F2FED0
S1132EB0C046BD4604B080BDE442000080B584B085
S1132EC000AFF860B9607A600B4B06211800FFF779
S1132ED0FBFEFB6806211800FFF7F6FEBB6818002E
S1132EE000F02CF87B6806211800FFF771FFC0463C
S1132EF0BD4604B080BDC046EC42000080B584B03D
S1132F0000AFF860B9607A600B4B01211800FFF73D
S1132F10DBFEFB6801211800FFF7D6FEBB68180032
S1132F2000F00CF87B6801211800FFF751FFC04640
S1132F30BD4604B080BDC046F442000080B586B0F2
S1132F4000AF78607B68002B0EDA7B685B427B61A4
S1132F500D4B1800FFF77EFE7A690823FB18110059
S1132F60180000F013F806E07A680823FB18110033
S1132F70180000F00BF80823FB181800FFF76AFE8E
S1132F80C046BD4606B080BDFC42000090B589B085
S1132F9000AF786039603B68002B07D17B68302232
S1132FA01A707B68013300221A7064E03B68FB618D
S1132FB01B23FB1800221A701A23FB1800221A7014
S1132FC025E0FB690A21180000F0BCFC0B007B61C2
S1132FD07B69092B04D87B69DBB23033D9B200E0BA
S1132FE03F211B203B181B780822BA18D1543B18E8
S1132FF01A783B1801321A70FA697B69D31AFB619B
S1133000FB690A21180000F017FC0300FB61FB694F
S1133010002BD6D11A23FB181B22BA1812781A7067
S11330201923FB1800221A7016E01A203B181B788B
S11330305A1E19243B191B787968CB180821791872
S11330408A5C1A703B181A783B18013A1A703B19BB
S11330501A783B1901321A701923FA181B23FB182A
S113306012781B789A42E0D31B23FB181B787A68EA
S1133070D31800221A70C046BD4609B090BD0000A6
S113308090B583B000AF254B1B681800FFF71DFCFB
S113309003007B60214B1B687A6811001800FFF75E
S11330A0F9FB1E4B19681E4B1C68621C1C4B1A60F2
S11330B00800FFF75DFA03001A001A4B1A55184B63
S11330C01B68013B174AD35CDBB20D2B07D0144BB2
S11330D01B68013B134AD35CDBB20C2B0BD1124BA4
S11330E001221A700E4B1B68013B0E4A0021D15479
S11330F00B4B00221A600A4B1B684D2B0AD90A4B52
S113310001221A70064B1B68064A0021D154044B55
S113311000221A60C046BD4603B090BDC400002022
S1133120B0000020C8000020AD00002080B582B0AF
S113313000AF194B1B681800FFF7C7FB03007B6047
S1133140154B1B687A6811001800FFF7A3FB7B6816
S1133150012213401BD0114B1B684F2B14D80F4B6B
S11331601B680F4AD35CDBB2002B0DD00A4B1868E6
S11331700A4B1B68591C094A1160094AD35CDBB22B
S11331801900FFF724FA02E0044B00221A60C0463B
S1133190BD4602B080BDC046C4000020B40000207B
S11331A01801002090B583B000AF254B1B681800B0
S11331B0FFF78BFB03007B60214B1B687A681100CF
S11331C01800FFF767FB1E4B19681E4B1C68621C36
S11331D01C4B1A600800FFF7CBF903001A001A4BC6
S11331E01A55184B1B68013B174AD35CDBB20D2BF5
S11331F007D0144B1B68013B134AD35CDBB20C2B86
S11332000BD1124B01221A700E4B1B68013B0E4A64
S11332100021D1540B4B00221A600A4B1B684D2B22
S11332200AD90A4B01221A70064B1B68064A002170
S1133230D154044B00221A60C046BD4603B090BD71
S1133240C4000020B8000020C8000020AD00002009
S113325080B582B000AF194B1B681800FFF735FB2F
S113326003007B60154B1B687A6811001800FFF798
S113327011FB7B68012213401BD0114B1B684F2BA1
S113328014D80F4B1B680F4AD35CDBB2002B0DD054
S11332900A4B18680A4B1B68591C094A1160094AF1
S11332A0D35CDBB21900FFF792F902E0044B002271
S11332B01A60C046BD4602B080BDC046C4000020AE
S11332C0BC0000201801002080B586B000AFF86073
S11332D0B9607A60FB681B687B610122BB689A4015
S11332E01300DB431A007B691A407B6801211940F3
S11332F0BB6899400B001A43FB681A60C046BD4680
S113330006B080BD80B584B000AF786039607B685A
S1133310012B04D90F4BA9211800FDF785FD3B684B
S11333201B0E1B0604D00B4BAE211800FDF77CFDD1
S11333307B68002B02D0012B03D008E0064BFB6016
S113334002E0064BFB60C046FB683A681A60BD4663
S113335004B080BD70430000080008400C00084021
S113336080B582B000AF0200FB1D1A70FB1D1B78F4
S113337004481A000021FFF7A7FFC046BD4602B06B
S113338080BDC0460000084080B584B000AF7860BE
S11333907B681B78002B02D00123FB6001E0002333
S11333A0FB607B685B78002B03D0FB68022213432D
S11333B0FB607B689B78002B03D0FB6804221343DB
S11333C0FB60034BFA681A60C046BD4604B080BD7A
S11333D00000084080B500AF0020FFF7C1FF0120C6
S11333E0FFF7BEFFC046BD4680BD000080B582B079
S11333F000AF786004498E235B007A68CA50C046E7
S1133400BD4602B080BDC0460060004080B500AF3C
S1133410034A8A235B00D3581800BD4680BDC046CA
S11334200060004080B582B000AF7860034B7A68DA
S11334309A61C046BD4602B080BDC0460000084047
S113344080B500AFFFF7C6FF0220FFF7EBFFC046D1
S1133450BD4680BD80B582B000AFFFF7D7FF030043
S11334607B600B4B1800FFF7D3FC7A688023DB00EA
S11334709A4204D1074B04211800FFF725FC064BA0
S11334801800FFF7B3FFC046BD4602B080BDC0467A
S1133490DC430000044400005555000080B582B0B0
S11334A000AFFFF7B3FF03007B60124B1800FFF778
S11334B0AFFC7A6880239B009A4205D10E4B04210D
S11334C01800FFF701FC07E07B68802B04D10B4B4D
S11334D004211800FFF7F8FB7B68802B02D1084B0E
S11334E001221A70074B1800FFF780FFC046BD4643
S11334F002B080BD0C440000344400003C44000091
S1133500C0000020AAAA000080B582B000AF02006B
S11335103960FB1D1A70FB1D1B78002B21D0FB1D8D
S11335201B78012B1AD0FB1D1B78022B14D0FB1D1A
S11335301B78032B0ED0FB1D1B78042B07D0FB1D1F
S11335401B78052B01D13F230CE000230AE0F02374
S11335509B0107E0F02305E0114B03E0D323DB01DB
S113356000E0104B3A6813410122134005D10E4A82
S11335700E4B11001800FDF757FC01223B689A40DE
S113358010000B49FB1D1A781300DB009B189B00ED
S1133590CB1814331860C046BD4602B080BDC04687
S11335A01FEF000007070000C203000048440000AA
S11335B00060004080B582B000AF02003960FB1D9E
S11335C01A70FB1D1B78002B21D0FB1D1B78012BCF
S11335D01AD0FB1D1B78022B14D0FB1D1B78032B68
S11335E00ED0FB1D1B78042B07D0FB1D1B78052B6D
S11335F001D13F230CE000230AE0F0239B0107E004
S1133600F02305E0114B03E0D323DB0100E0104B72
S11336103A6813410122134005D10E4A0E4B1100A2
S11336201800FDF701FC01223B689A4010000B4989
S1133630FB1D1A781300DB009B189B00CB1810337A
S11336401860C046BD4602B080BDC0461FEF0000F2
S113365007070000F1030000484400000060004038
S113366080B582B000AF02003960FB1D1A70FB1DEB
S11336701B78002B21D0FB1D1B78012B1AD0FB1DBE
S11336801B78022B14D0FB1D1B78032B0ED0FB1DC3
S11336901B78042B07D0FB1D1B78052B01D13F237E
S11336A00CE000230AE0F0239B0107E0F02305E08F
S11336B0114B03E0D323DB0100E0104B3A681341C4
S11336C00122134005D10E4A0E4B11001800FDF7DC
S11336D0ABFB01223B689A4010000B49FB1D1A7892
S11336E01300DB009B189B00CB1818331860C046EE
S11336F0BD4602B080BDC0461FEF000007070000B2
S11337000C040000484400000060004080B500AF95
S11337100123042204210520FEF7ECFB01230422EB
S113372005210520FEF7E6FB04210520FFF7ECFE4A
S113373005210520FFF7E8FEC046BD4680BD80B5E3
S113374082B000AF0200FB1D1A70FB1D1B78002B1A
S113375004D004210520FFF72DFF03E004210520F8
S1133760FFF7D2FEC046BD4602B080BD80B582B030
S113377000AF0200FB1D1A70FB1D19780C4A0D4B9B
S11337801800FFF7BBFB04210520FFF7BDFE052150
S11337900520FFF70FFF642000F01AF8042105202C
S11337A0FFF75EFF05210520FFF75AFFF3E7C04648
S11337B0B4440000D044000080B500AF034B1B6844
S11337C05A1C024B1A60C046BD4680BD68010020E9
S11337D080B584B000AF7860074B1B68FB60C046BF
S11337E0054B1A68FB68D31A7A689A42F8D8C0461F
S11337F0BD4604B080BDC0466801002080B582B0DB
S113380000AF0200FB1D1A70FB1D1B78002B06D0B5
S1133810084B1A68074B03210A431A6005E0054B5D
S11338201A68044B03218A431A60C046BD4602B09D
S113383080BDC04610E000E0002243088B4274D3F0
S113384003098B425FD3030A8B4244D3030B8B429D
S113385028D3030C8B420DD3FF22090212BA030CA6
S11338608B4202D31212090265D0030B8B4219D387
S113387000E0090AC30B8B4201D3CB03C01A5241A7
S1133880830B8B4201D38B03C01A5241430B8B42EF
S113389001D34B03C01A5241030B8B4201D30B03D8
S11338A0C01A5241C30A8B4201D3CB02C01A5241FF
S11338B0830A8B4201D38B02C01A5241430A8B42C2
S11338C001D34B02C01A5241030A8B4201D30B02AB
S11338D0C01A5241CDD2C3098B4201D3CB01C01AC5
S11338E0524183098B4201D38B01C01A52414309CF
S11338F08B4201D34B01C01A524103098B4201D3BD
S11339000B01C01A5241C3088B4201D3CB00C01A29
S1133910524183088B4201D38B00C01A52414308A1
S11339208B4201D34B00C01A5241411A00D20146C6
S1133930524110467047FFE701B5002000F006F839
S113394002BDC0460029F7D076E770477047C046ED
S1133950084B10B50400002B02D0002100E000BF8A
S1133960054B1868836A002B00D09847200000F0AC
S113397031F8C04600000000DC44000070B50026A9
S11339800C4D0D4C641BA410A64209D1002600F076
S113399023F80A4D0A4C641BA410A64205D170BD3D
S11339A0B300EB5898470136EEE7B300EB5898475D
S11339B00136F2E780000020800000208000002013
S11339C08400002003001218934200D1704719703C
S11339D00133F9E7FEE7C046F8B5C046F8BC08BCB9
S11339E09E467047F8B5C046F8BC08BC9E46704772
S11339F001B40248844601BC604700BF7100002046
S1133A002F686F6D652F6272656368742F50726FD3
S1133A106772616D732F53696D706C696369747932
S1133A2053747564696F5F76342F646576656C6F63
S1133A307065722F73646B732F6765636B6F5F734D
S1133A40646B5F73756974652F76322E342F2F7013
S1133A506C6174666F726D2F656D6C69622F696E2F
S1133A60632F656D5F6770696F2E680041636365DE
S1133A706C65726F6D6574657220706F77657265C1
S1133A8064000000416363656C65726F6D65746505
S1133A907220706F776572656420646F776E0000C2
S1133AA0416363656C65726F6D6574657220535014
S1133AB04920696E697469616C697A656400000003
S1133AC0050000000000000040420F000501000056
S1133AD0000000000000000057616974696E6720EF
S1133AE035207365636F6E64732E2E2E0000000004
S1133AF05374617274696E672E2E2E00546573744C
S1133B00696E6720746865204144584C2028616CB4
S1133B106C20696E202B2D32672064656661756C9C
S1133B2074206D6561737572656D656E7420726164
S1133B306E67652C2037207365636F6E6473293A52
S1133B40000000002020207374616E646279202DCF
S1133B502031736563202D204F44522031322C359F
S1133B60487A202B20656E61626C65206D656173F7
S1133B707572656D656E7473202D203173656320D5
S1133B802D204F445220323520487A002020202D09
S1133B902031736563202D204F4452203530204856
S1133BA07A202D2031736563202D204F445220311B
S1133BB0303020487A202864656661756C74206F03
S1133BC06E20726573657429202D2031736563201E
S1133BD02D000000202020323030487A202D203162
S1133BE0736563202D204F44522034303020487AAE
S1133BF0202D2031736563202D20736F667420524D
S1133C00657365740000000054657374696E672001
S1133C10646F6E65000000000D5B00005D20583A83
S1133C2020000000206D67207C20593A200000000D
S1133C30206D67207C205A3A20000000206D672008
S1133C4020200000207265747269657329000000E9
S1133C50536F6674207265736574204144584C2018
S1133C60646F6E6520280000536F6674207265735C
S1133C706574204144584C20646F6E652C20686143
S1133C806420746F202268617264207265736574A5
S1133C90222028004F44522073657420617420311F
S1133CA0322E3520487A00004F4452207365742028
S1133CB0617420323520487A000000004F445220BD
S1133CC073657420617420353020487A0000000048
S1133CD04F44522073657420617420313030204881
S1133CE07A0000004F4452207365742061742032BE
S1133CF0303020487A0000004F445220736574200D
S1133D0061742034303020487A0000004F4452203F
S1133D107365742061742031303020487A20287211
S1133D20657365742064656661756C7429000000B0
S1133D304D6561737572656D656E74206D6F646534
S1133D40202B2D2032672073656C656374656400D5
S1133D504D6561737572656D656E74206D6F646514
S1133D60202B2D2034672073656C656374656400B3
S1133D704D6561737572656D656E74206D6F6465F4
S1133D80202B2D2038672073656C6563746564008F
S1133D9020670000416374697669747920636F6EEB
S1133DA0666967757265643A200000004D65617349
S1133DB07572656D656E7420656E61626C65640014
S1133DC04D6561737572656D656E742064697361A8
S1133DD0626C656420287374616E646279290000E2
S1133DE0010001000000000044697361626C696EA7
S1133DF067207379737469636B202620676F696E1B
S1133E006720746F20736C6565702E2E2E0D0A006A
S1133E102F686F6D652F6272656368742F50726FBF
S1133E206772616D732F53696D706C69636974791E
S1133E3053747564696F5F76342F646576656C6F4F
S1133E407065722F73646B732F6765636B6F5F7339
S1133E50646B5F73756974652F76322E342F2F70FF
S1133E606C6174666F726D2F656D6C69622F696E1B
S1133E70632F656D5F636D752E6800002F686F6D2D
S1133E80652F6272656368742F50726F6772616D1B
S1133E90732F53696D706C696369747953747564B5
S1133EA0696F5F76342F646576656C6F7065722F09
S1133EB073646B732F6765636B6F5F73646B5F739E
S1133EC0756974652F76322E342F706C6174666F49
S1133ED0726D2F656D6C69622F7372632F656D5FF0
S1133EE0636D752E63000000DC120000AA1200004E
S1133EF0B0120000A4120000DC120000DC1200006A
S1133F00B6120000C0120000CA120000DC12000049
S1133F10D61200004A160000C01400002815000044
S1133F2074150000C01500004A160000F2150000C8
S1133F30FC150000E0180000BE1600006817000021
S1133F406817000006180000E0180000E0180000E0
S1133F50601800002417000024170000D016000089
S1133F60DE160000EC160000FA160000241700000C
S1133F702417000024170000241700002417000051
S1133F800817000016170000BC1700007A1700007D
S1133F908017000090170000BC170000BC17000039
S1133FA0A0170000BC170000BC170000BC170000DD
S1133FB0BC170000BC170000B217000094190000E1
S1133FC0861900006A1900005C19000078190000C5
S1133FD0A61900002F686F6D652F6272656368749F
S1133FE02F50726F6772616D732F53696D706C69B6
S1133FF06369747953747564696F5F76342F64658B
S113400076656C6F7065722F73646B732F6765636D
S11340106B6F5F73646B5F73756974652F76322E93
S1134020342F2F706C6174666F726D2F656D6C69BF
S1134030622F696E632F656D5F6770696F2E68000C
S11340402F686F6D652F6272656368742F50726F8D
S11340506772616D732F53696D706C6963697479EC
S113406053747564696F5F76342F646576656C6F1D
S11340707065722F73646B732F6765636B6F5F7307
S1134080646B5F73756974652F76322E342F706C90
S11340906174666F726D2F656D6C69622F737263E4
S11340A02F656D5F6770696F2E6300002F686F6DF9
S11340B0652F6272656368742F50726F6772616DE9
S11340C0732F53696D706C69636974795374756483
S11340D0696F5F76342F646576656C6F7065722FD7
S11340E073646B732F6765636B6F5F73646B5F736C
S11340F0756974652F76322E342F706C6174666F17
S1134100726D2F656D6C69622F7372632F656D5FBD
S113411075736172742E63002F686F6D652F627200
S1134120656368742F50726F6772616D732F536982
S11341306D706C696369747953747564696F5F76C3
S1134140342F646576656C6F7065722F73646B735E
S11341502F6765636B6F5F73646B5F7375697465F9
S11341602F76322E342F2F706C6174666F726D2F20
S1134170656D6C69622F696E632F656D5F67706929
S11341806F2E6800070D0C23232320554152542021
S1134190696E697469616C697A65642028696E74F2
S11341A0657272757074206D6F64652920232323F2
S11341B0000000005468697320697320616E2069EF
S11341C06E666F206D6573736167652E0000000075
S11341D0546869732069732061207761726E696E17
S11341E067206D6573736167652E00005468697399
S11341F0206973206120637269746963616C20654E
S113420072726F72206D6573736167652E000000B2
S113421023232320205374617274206578656375A9
S113422074696E672070726F6772616D6D6564206A
S1134230636F646520202323230A0000070D0C23E9
S11342402323205541525420696E697469616C6955
S11342507A656420286E6F20696E74657272757059
S1134260747329202323230023232320537461728E
S11342707420657865637574696E672070726F6702
S113428072616D6D656420636F6465202023232350
S11342900A000000050000000000000000C2010048
S11342A00005000000100000000000001B5B306DE2
S11342B0000000001B5B33316D0000001B5B3332D8
S11342C06D0000001B5B33346D0000001B5B333654
S11342D06D0000001B5B33356D0000001B5B333346
S11342E06D000000494E464F3A2000005741524E9F
S11342F03A200000435249543A2000002D000000A7
S1134300307800009A290000962A0000B4290000A1
S1134310C2290000DC290000F6290000F62900006B
S11343202E2A0000962A0000482A0000482A00008D
S1134330622A00007C2A0000B82A0000CA2A000071
S1134340DE2A0000F02A0000022B0000142B0000DB
S1134350262B0000E82C0000FA2C0000142D00008D
S11343602E2D0000482D0000622D00007C2D000041
S11343702F686F6D652F6272656368742F50726F5A
S11343806772616D732F53696D706C6963697479B9
S113439053747564696F5F76342F646576656C6FEA
S11343A07065722F73646B732F6765636B6F5F73D4
S11343B0646B5F73756974652F76322E342F706C5D
S11343C06174666F726D2F656D6C69622F737263B1
S11343D02F656D5F7274632E630000004576656E11
S11343E0206E756D6265726564204750494F20697F
S11343F06E74657272757074207472696767657221
S113440065642E005042310A0D0000004F646420A0
S11344106E756D6265726564204750494F20696E00
S113442074657272757074207472696767657265F9
S1134430642E00005042300A0D000000494E5431F1
S11344402D5044370A0D00002F686F6D652F62727E
S1134450656368742F50726F6772616D732F53694F
S11344606D706C696369747953747564696F5F7690
S1134470342F646576656C6F7065722F73646B732B
S11344802F6765636B6F5F73646B5F7375697465C6
S11344902F76322E342F2F706C6174666F726D2FED
S11344A0656D6C69622F696E632F656D5F677069F6
S11344B06F2E6800292120506C6561736520726538
S11344C0736574204D43552E203C3C3C0000000095
S11344D03E3E3E204572726F72202800100000207C
S10744E000000000D4
S10B44E4F8BBFF7F010000009A
S11344EC006CDC0200366E0100800000809FD50059
S11344FC00000000000000000000000000000000AC
S113450C000000000000000000000000000000009B
S113451C000000000000000000000000000000008B
S113452C000000000000000000000000000000007B
S113453C000000000000000000000000000000006B
S113454C000000000000000000000000000000005B
S113455C80B500AF30BF04231B68C046BD4680BD88
S10B456CBD00000095000000F1
S90325F9DE
